:020000040000FA
:100000000A128A11FC2FFF1B0D2883137F188317F8
:100010000008840A0319FF0A080000308A00040857
:10002000840A820700344134443443343A3420345F
:0200300000349A
:100AEC00831203139F01CE30831603139F0008005B
:100AFC00F2007208831203138600871687171A30C8
:100B0C00F100F830F000F00B892DF10B892D00006D
:100B1C008312031387130800F20072088312031365
:100B2C008600871287171A30F100F830F000F00BAE
:100B3C009D2DF10B9D2D00008312031387130800CC
:100B4C00C730831203139F051F140730F3007D3049
:100B5C00F200F20BAF2DF30BAF2D831203131F1505
:100B6C001E08F500831603131E08F4007508F10027
:100B7C007408F000080083120313A900A51FC72DE9
:100B8C00C82DD82D2D30FD00290884007D08831335
:100B9C0080000130FD007D08A907A409A509A40A5D
:100BAC000319A50A2508F9002408F8002708FB00FA
:100BBC002608FA0029080A128A11CF260A128A116D
:100BCC0008008230F400DD30F300F30BEB2DF40B56
:100BDC00EB2DF02D38300A128A1192250A128A1147
:100BEC000C300A128A1192250A128A1106300A1246
:100BFC008A1192250A128A1101300A128A11922541
:100C0C000A128A1180300A128A1192250A128A114C
:100C1C000800700871040319142E152E442EF501CA
:100C2C00F50A232E01300310F00DF10DFF3E031DCC
:100C3C00192E0130F4007408F507F11F262E272E0B
:100C4C00182E71087302031D2D2E70087202031CDE
:100C5C00302E312E372E7008F2027108031CF3036C
:100C6C00F30201300310F10CF00CFF3E031D382E83
:100C7C000130F502031D432E442E272E7308F1007C
:100C8C007208F0000800F801F9016E2E780873075D
:100C9C00F6007408F5000318F50AF81F562EF50334
:100CAC007508F700770883120313FF007608840099
:100CBC000A128A1103200A128A110A128A117E253D
:100CCC000A128A110130F8070318F90A0030F907E3
:100CDC0078087307F6007408F5000318F50AF81F76
:100CEC00782EF5037508F700770883120313FF00BD
:100CFC00760884000A128A1103200A128A11003A1B
:100D0C00031D892E8A2E4C2E0800F501F601700861
:100D1C0071040319922E932ECA2EF701F70AA12EF5
:100D2C0001300310F00DF10DFF3E031D972E013025
:100D3C00F4007408F707F11FA42EA52E962E01308F
:100D4C000310F50DF60DFF3E031DA62E7108730260
:100D5C00031DB22E70087202031CB52EB62EBD2ECA
:100D6C007008F2027108031CF303F30275140130CE
:100D7C000310F10CF00CFF3E031DBE2E0130F702E8
:100D8C00031DC92ECA2EA52E7608F1007508F00099
:100D9C00080083120313A3007908A1007808A000AF
:100DAC007B08F1007A08F0002108F3002008F2001B
:100DBC000A128A118B260A128A11710883120313E4
:100DCC00A1007008A0000130FC007C08A3072008DB
:100DDC002104031DF22EF32ED62E23088400831338
:100DEC0080010130A3027B08F1007A08F000790839
:100DFC00F3007808F2000A128A110F260A128A11DF
:100E0C007008FC007C0883120313A2007B08F1001D
:100E1C007A08F0007908F3007808F2000A128A11B7
:100E2C008B260A128A117108F9007008F8000A3032
:100E3C00831203132202031C242F252F292F073082
:100E4C00FC007C08A2073030FC007C08A2072208BA
:100E5C00FC00230884007C08831380000130A3026B
:100E6C0078087904031D3B2F3C2FF92E0130FC0030
:100E7C007C08A30708008316031386010130870042
:100E8C001A3083120313AC005E30AB006D30AA0035
:100E9C00AA0B4E2FAB0B4E2FAC0B4E2F552F831294
:100EAC00031307121A3083120313AC005E30AB002D
:100EBC006D30AA00AA0B602FAB0B602FAC0B602F10
:100ECC00672F8312031307161A3083120313AC0017
:100EDC005E30AB006D30AA00AA0B722FAB0B722FD9
:100EEC00AC0B722F792F8312031307121A30831253
:100EFC000313AC005E30AB006D30AA00AA0B842F3C
:100F0C00AB0B842FAC0B842F8B2F83120313071680
:100F1C001A3083120313AC005E30AB006D30AA00A4
:100F2C00AA0B962FAB0B962FAC0B962F9D2F8312E3
:100F3C00031307121A3083120313AC005E30AB009C
:100F4C006D30AA00AA0BA82FAB0BA82FAC0BA82FA7
:100F5C00AF2F0A128A1176250A128A110A128A11E7
:100F6C00E7250A128A110A128A11A6250A128A1179
:100F7C00710883120313B5007008B4003508A5007E
:100F8C003408A4000A30A6000030A7002D300A1245
:100F9C008A11C1250A128A110130F3008030F40045
:100FAC000A128A1149260A128A112D30F3000030D8
:100FBC00F4000A128A1149260A128A1183120313A9
:100FCC00871CE92FEA2FF22F8718ED2FEE2FEA2F2F
:100FDC00871CF12FF22FEE2F02300A128A11922564
:100FEC000A128A11B92F0A128A11002883010A12D7
:040FFC008A11412FE6
:02400E00723FFF
:00000001FF
